:020000040000FA
:10000000B04500209D02000077180000F91600009E
:1000100075180000F5040000051E00000000000037
:10002000000000000000000000000000DD010000F2
:10003000F70400000000000039020000A5180000CD
:10004000B7020000B7020000B7020000B7020000CC
:10005000B7020000B7020000B7020000B7020000BC
:10006000B7020000B7020000B7020000B7020000AC
:10007000B7020000B7020000B7020000B70200009C
:10008000B7020000B7020000B70200000000000045
:10009000000000000000000000000000B7020000A7
:1000A000B7020000A5190000B7020000B702000067
:1000B000000000000000000000000000B702000087
:1000C000B7020000B7020000B7020000B70200004C
:1000D000B7020000B7020000B702000000000000F5
:1000E000B7020000B702000000000000000000009E
:1000F000000000000000000000000000B702000047
:100100000000000000000000B70200000000000036
:100110000000000000000000B70200000000000026
:10012000B7020000B7020000B7020000B7020000EB
:10013000B702000000000000000000000000000006
:1001400000000000000000000000000000000000AF
:10015000B7020000B7020000B7020000B7020000BB
:10016000000000000000000000000000000000008F
:10017000000000000000000000000000000000007F
:10018000B7020000B70200000000000000000000FD
:1001900000000000B70200000000000000000000A6
:1001A000000000000000000000000000000000004F
:1001B000000000000000000000000000B702000086
:1001C000B7020000B7020000DFF80CD000F0ECF836
:1001D000004800478D1E0000B04500202C4B1968D8
:1001E0000868B0E8F04F80F30988BFF36F8F4FF0D5
:1001F000000080F311887047000000000848006884
:10020000006880F308884FF0000080F3148862B61D
:1002100061B6BFF34F8FBFF36F8F00DF00BF00BF2A
:1002200008ED00E0DFF80C00016841F470010160A6
:10023000704700BF88ED00E0EFF30980BFF36F8FD8
:10024000134B1A681EF0100F08BF20ED108A20E92A
:10025000F04F106009B44FF0500080F31188BFF3E5
:100260004F8FBFF36F8F02F0FFF94FF0000080F364
:10027000118809BC19680868B0E8F04F1EF0100F2B
:1002800008BFB0EC108A80F30988BFF36F8F704706
:1002900014000020EFF305807047000006488047F7
:1002A00006480047FEE7FEE7FEE7FEE7FEE7FEE75B
:1002B000FEE7FEE7FEE7FEE751190000C901000076
:1002C0002DE9F05F0546002092469B46884606468B
:1002D000814640241BE0284641464746224600F01E
:1002E00053F853465A46C01A914110D31146184646
:1002F000224600F03AF82D1A67EB01084F462246D5
:100300000120002100F031F817EB00094E41201EBA
:10031000A4F10104DFDC484631462A464346BDE8E5
:10032000F09F40EA01039B0703D009E008C9121FB0
:1003300008C0042AFAD203E011F8013B00F8013B9F
:10034000521EF9D27047D2B201E000F8012B491ECB
:10035000FBD270470022F6E710B513460A46044662
:100360001946FFF7F0FF204610BD202A04DB203A93
:1003700000FA02F1002070479140C2F1200320FAF8
:1003800003F3194390407047202A04DB203A21FAF6
:1003900002F00021704721FA02F3D040C2F120029E
:1003A0009140084319467047064C074D06E0E06847
:1003B00040F0010394E8070098471034AC42F6D3AC
:1003C000FFF706FF342A0000542A0000464910B502
:1003D0004A6822F440324A604A6843681A434A60D5
:1003E00001684A6822F480724A6001684A680369B9
:1003F00042EA03224A6001684A6822F040724A6079
:1004000001684A6883681A434A6001688A6822F46E
:1004100000628A6001688A68C3681A438A60816AD8
:100420006FF07062D14201688A6822F070628A605F
:1004300001688A680CD0836A1A438A6001688A68F6
:1004400022F040528A6001688A68C36A1A4301E058
:1004500022F040528A6001688A6822F002028A60B3
:1004600001688A68037E42EA43028A6090F820109D
:10047000002901684A680FD042F400624A600168AE
:100480004A6822F460424A6001684A68174C436A2D
:1004900004EB43331A4301E022F400624A6001682E
:1004A000CA6A22F47002CA620168CA6A838B104C5D
:1004B00004EB03531A43CA6201688A6822F400728B
:1004C0008A6001688A6890F8303042EA43228A6084
:1004D00001688A6822F480628A6001688A684069DB
:1004E00042EA8020886010BD0023014000E0FFFF49
:1004F0000000F0FFFEE7704778B50024009490F804
:100500003C20012A19D0012280F83C200A680723E8
:100510000568092A13D9EE680A3A02EB42029340B1
:100520009E43EE600B788A680A3B03EB43039A40D4
:100530000368DD682A43DA6010E0022078BD2E6986
:1005400002EB420293409E432E610B788A6803EBD4
:1005500043039A4003681D692A431A614A681F23AE
:10056000072A13D205686E6B521E02EB820293407B
:100570009E436E630B790A885B1E92B203EB830382
:100580009A4003685D6B2A435A6327E005680D2A89
:1005900012D22E6BD21F02EB820293409E432E6337
:1005A0000B790A88DB1F92B203EB83039A4003683E
:1005B0001D6B2A431A6311E0EE6A0D3A02EB8202C8
:1005C00093409E43EE620B790A880D3B92B203EB97
:1005D00083039A400368DD6A2A43DA62164B056892
:1005E000144A9D4206D10D68122D03D1556845F479
:1005F0008005556005689D4218D10B68102B01D00D
:10060000112B13D1536843F4000353600968102978
:100610000CD10A490A4A0968B1FBF2F101EB8101E8
:10062000490000E0491E00910029FBD180F83C40C0
:10063000002078BD00230140002001401000002070
:1006400040420F0070B504004FF0000503D0206C4D
:10065000002610B107E0012070BD204600F01CF814
:10066000666484F83C60206CC00610D4206C20F4D2
:10067000885040F0020020642046FFF7A7FE666421
:10068000206C20F0020040F00100206400E0012511
:1006900084F83C60284670BD30B587B0044614210C
:1006A0006846FFF757FE20492068884239D11F4825
:1006B0000025016841F480710160006800F48070D9
:1006C00005901A481438016841F001010160016881
:1006D00001F001010591016841F004010160016828
:1006E00001F004010591016841F002010160006818
:1006F000032400F002000590C3208DE83100694614
:100700000B4800F01BF830208DE83100694609489D
:1007100000F014F8009469460748CDE9014500F05F
:100720000DF807B030BD0000002001404438024001
:100730000000024000080240000402402DE9F84F8A
:10074000DFF84CB100224FF001084FF0030A4FF0E0
:100750000F090BF1040E00BF0B6808FA02F42340E6
:10076000A3427DD14D68022D01D0122D0ED1D508A6
:1007700000EB850CDCF820505607F70E09FA07F657
:10078000B5430E69BE402E43CCF820600668550084
:100790000F790AFA05FC07F0030726EA0C06AF40BA
:1007A000374307604E68012E05D0022E03D0112E6C
:1007B00001D0122E0ED18768CE6827EA0C07AE4012
:1007C0003E4386604668A6430C79C4F30014944007
:1007D00034434460C4688E6824EA0C04AE40264367
:1007E000C6604C68E4004DD52A4C256845F4804528
:1007F0002560246822F0030504F480440094264C0C
:100800002E19D6F8084895072F0F09FA07F5AC43BB
:10081000224DA84201D100250AE0214DA84201D174
:10082000012505E01F4DA84201D1022500E0072562
:10083000BD402543C6F80858DBF800405D464E68C9
:100840009C43F60300D51C432C60DEF8004075463F
:100850004E689C43B60300D51C432C600C4D00E051
:1008600010E008352C684E689C43F60200D51C4306
:100870002C60074D0C352C684E689C43B60200D5A1
:100880001C432C60521C102AFFF466AFBDE8F88FA1
:10089000003C01404438024000300140000002406A
:1008A0000004024000080240426931EA020200D11D
:1008B0000904816170470AB1816170470904FBE74F
:1008C00001488068704700000400002070B50400F3
:1008D0001BD094F83D00002520B984F83C502046F8
:1008E00000F0AEF8242084F83D002068016821F073
:1008F0000101016000F072FA4D4A6168914201D82D
:100900004C4900E04C49884201D2012070BD4B495E
:100910002368B0FBF1F15E6826F03F060E435E608F
:100920006368934206D94FF4967359434FF47A7330
:10093000B1FBF3F12368491C1E6A26F03F063143E0
:1009400019626168914210D84900401EB0FBF1F273
:10095000521CC2F30B02042A01D2042022E0B0FB95
:10096000F1F0401CC0F30B001CE0A368F3B301EBF3
:10097000C10202EB0116421EB2FBF6F2521C42F417
:100980008042120549D093B301EBC10202EB011181
:10099000401EB0FBF1F0401CC0F30B0040F480405F
:1009A00040F400402168CA694CF6FF739A43104333
:1009B000C861D4E90701084321680A6822F0C0022F
:1009C00010430860D4E9030101432068826848F2BB
:1009D000FF339A4311438160D4E90501084321683C
:1009E000CA6822F0FF021043C86001E00EE016E082
:1009F0002068016841F0010101602564202084F82D
:100A00003D00256384F83E50002070BD01EB410697
:100A1000421EB2FBF6F2521CB3E70120C2E701EB23
:100A20004101401EB0FBF1F0401CC0F30B00B7E7E2
:100A3000A086010080841E0000093D0040420F0096
:100A40002DE9F04186B0044614216846FFF782FC88
:100A50002368274CDFF894C0254912250126032777
:100A6000042224481034634516D10B6843F0020376
:100A70000B600968049201F002010591C0218DE824
:100A8000E2006946FFF75AFE206840F4001020603B
:100A9000206800F4001025E0DFF85CC0634522D137
:100AA0000B6843F002030B600968049201F0020135
:100AB00005914FF480618DE8E20069468046FFF7BA
:100AC0003DFE4FF400708DE8E10009200490694676
:100AD0004046FFF733FE206840F480002060206825
:100AE00000F48000059006B0BDE8F081005400409D
:100AF000303802400004024000580040024881683B
:100B00000278114481607047040000200B4810B542
:100B1000016841F400710160016841F48061016085
:100B2000016841F480710160032000F08DF800201D
:100B300000F006F800F03EF8002010BD003C024036
:100B400010B5014688B00022192000F05DF8192088
:100B500000F04CF813480024016841F001010160E5
:100B6000006805A900F001000690684600F016F93B
:100B700000F044F90C490D4AB0FBF1F10C48491E54
:100B8000026040F2E732C0E90324C0E9011400F03A
:100B90002CFB10B1012008B010BD054800F041FB4E
:100BA000F9E700004438024040420F0000000140D5
:100BB0007C0400200C4882B0016841F4804101604F
:100BC000006800F4804000900748001F016841F071
:100BD000805101600068002200F0805000900F21D9
:100BE000901E02B000F010B844380240002809DB23
:100BF00000F01F02012191404009800000F1E02037
:100C0000C0F8001170470000F0B40E4B1B680C4692
:100C1000C3F30223C3F10705042D00D90425191DD0
:100C2000072901D2002300E0DB1E012606FA05F1A8
:100C3000491E214099409E40761E16403143F0BC2B
:100C400001F0EAB80CED00E0064900F00702086880
:100C50004FF6FF03184040EA0220034A10430860A1
:100C6000704700000CED00E00000FA052DE9F047A8
:100C70000E46050065D0DFF81481D8F80000F7B201
:100C800000F00F00B04207D288F80070D8F80000DA
:100C900000F00F00B04254D128683D4C810712D5B6
:100CA000400703D5206840F4E05020602878000712
:100CB00003D5206840F4604020602068A96820F0D7
:100CC000F000084320602878C0072DD030496868BC
:100CD0000839012812D0022813D0032811D009683E
:100CE000890700292DDA216821F0030101432160E1
:100CF000FFF7E6FD814641F2883A0EE00968890374
:100D0000EFE709688901ECE7FFF7DAFDA0EB0901DD
:100D1000514502D90320BDE8F0872068696800F0DA
:100D20000C00B0EB810FEFD1D8F80010404601F075
:100D30000F01B14207D90770006800F00F00B04200
:100D400001D00120E7E72878400705D52068E96849
:100D500020F4E050084320602878000706D520687A
:100D6000296920F4604040EAC100206000F056F894
:100D70002168084AC1F30311515CC8400649086064
:100D80000020FFF7DDFE0020C5E70000003C024028
:100D900008380240102A0000100000200F220260D4
:100DA0000C4A136803F003034360136803F0F00375
:100DB0008360136803F4E053C36012684FF4E05398
:100DC00003EAD20202610448006800F00F000860E4
:100DD0007047000008380240003C024004480549C2
:100DE00000680968044AC1F38221515CC840704719
:100DF0001000002008380240202A0000044805495D
:100E000000680968044AC1F34231515CC840704728
:100E10001000002008380240202A0000154810B5B4
:100E2000006810F00C02144813D01449042A0FD0A3
:100E3000082A0ED10F4C241F2268236802F03F02BB
:100E40005B0207D52068C0F38810A0FB010106E013
:100E5000084610BD2168C1F38811A1FB00010023E1
:100E6000FFF72EFA2168C1F30141491C4900B0FB8C
:100E7000F1F010BD083802400024F40040787D01F4
:100E80002DE9F84F05460078DFF800B3C04CC007E5
:100E90004AD0DBF800105846C1F38101012908D07F
:100EA0000068C0F3810002280AD1201D00684002BA
:100EB00006D52068800337D56868002872D033E0F3
:100EC0006868B0F5803F10D0B0F5A02F206810D032
:100ED00020F480302060206820F480202060686842
:100EE000A8B1FFF7EDFC06460DE0206840F4803025
:100EF000F4E740F480202060F7E700BFFFF7E0FC54
:100F0000801B64286FD820688003F7D50CE0FFF7BA
:100F1000D7FC064605E000BFFFF7D2FC801B642823
:100F2000F0D820688003F7D42878DFF8688280073B
:100F30004FF0000940D5DBF80010584611F00C0FB7
:100F400009D00068C0F3810002280BD18F48001F30
:100F50000068400206D42068800715D5E86801289B
:100F600020D111E0E868B8B10120C8F80000FFF70F
:100F7000A7FC064605E000BFFFF7A2FC801B022885
:100F8000C0D820688007F7D52068296920F0F800CC
:100F900040EAC10020600FE0C8F80090FFF790FC25
:100FA000064606E0EFE000BFFFF78AFC801B022840
:100FB00019D820688007F7D42878000722D5734E07
:100FC000754869696C3679B101210160FFF778FCD9
:100FD000074604E0FFF774FCC01B022803D8306802
:100FE0008007F7D50EE089E0C0F80090FFF768FCB5
:100FF000074604E0FFF764FCC01B02287ED8306877
:101000008007F7D42878400768D5DFF880A100274B
:101010000AF1380ADAF80000C0000BD4DAF8001040
:1010200041F08051CAF80010DAF80000012700F002
:1010300080500090594E3068C00510D4306840F49C
:1010400080703060FFF73CFC009005E0FFF738FC53
:101050000099401A022851D83068C005F6D54B4E89
:10106000A868683601280FD00528306810D020F015
:1010700001003060306820F004003060A868B8B12A
:10108000FFF71EFC00900FE0306840F00100F4E72D
:1010900040F004003060F7E7FFF712FC0099411AB6
:1010A00041F28830814266D830688007F4D50EE07E
:1010B000FFF706FC009007E0FFF702FC0099411AD9
:1010C00041F28830814256D830688007F4D42FB17D
:1010D000DAF8001021F08051CAF80010A869D0B3E6
:1010E000DBF80010C1F3810102294CD002284846E8
:1010F00007D0C8F86000FFF7E3FB00E03BE00546DF
:101100003CE04746C8F86000FFF7DAFB064604E01B
:10111000FFF7D6FB801B02282DD820688001F7D46A
:10112000F5E907010843E9681D4A490802EB014156
:10113000AA6841EA82110843297C40EA0160297DBE
:1011400040EA01711148001F016001203866FFF775
:10115000B7FB054605E014E0FFF7B2FB401B022891
:1011600009D820688001F7D50BE000BFFFF7A8FB86
:10117000401B022802D90320BDE8F88F20688001B7
:10118000F4D40020F8E70120F6E700000838024018
:101190000038024000004742800E47420070004085
:1011A0000000FFFF7047704770B590F83C20012A9F
:1011B00019D0012400F83C4F0222427050F83C3C08
:1011C0005A689D6822F070060A684968324325F023
:1011D000800529435A6050F83C2C916044700021EE
:1011E0000170084670BD022070BD10B5040003D028
:1011F00094F83D0010B107E0012010BD002084F8F4
:101200003C00204600F00CF8022084F83D00211D2F
:10121000206800F0CDFB012084F83D00002010BDC7
:1012200070470168CA6842F00102CA6000688168BC
:1012300001F00701062903D0016841F001010160B6
:1012400000207047704770B50446006801694FF090
:101250000005C943890715D4C168C943890711D45A
:10126000E91E0161012020772068806980072046FF
:1012700002D0FFF7E7FF04E000F001F9204600F09C
:10128000B3F9257720680169C943490717D4C168B4
:10129000C943490713D46FF004010161022020778C
:1012A0002068806910F4407F204602D0FFF7CAFF13
:1012B00004E000F0E4F8204600F096F92577206875
:1012C0000169C943090716D4C168C943090712D483
:1012D0006FF008010161042020772068C069800751
:1012E000204602D0FFF7AEFF04E000F0C8F8204629
:1012F00000F07AF9257720680169C943C90617D437
:10130000C168C943C90613D46FF0100101610820F8
:1013100020772068C06910F4407F204602D0FFF794
:1013200091FF04E000F0ABF8204600F05DF925776E
:1013300020680169C943C90708D1C168C943C90701
:1013400004D1891E0161204600F050F9206801692E
:10135000C943090609D4C168C943090605D46FF019
:10136000800101612046FFF71DFF20680169C94324
:10137000490609D4C168C943490605D46FF0400144
:101380000161204600F03CF920680169C9438906E3
:101390000BD4C168C943890607D46FF020010161ED
:1013A0002046BDE87040FFF7FEBE70BD30B587B087
:1013B000044614216846FEF7CDFF1749206888428D
:1013C00028D116480024016841F00201016001683B
:1013D00001F002010591016841F00401016000681B
:1013E000022500F0040005904FF4C0500090CDE9B4
:1013F000015469460A48CDE90345FFF79FF94FF4C8
:1014000040600090CDE9015469460648CDE90345A6
:10141000FFF794F907B030BD000C004030380240AF
:10142000000402400008024070B5044690F83C00F9
:1014300001280DD0012584F83C50022084F83D009D
:1014400042B1042A0AD0082A0CD00C2A11D10DE08E
:10145000022070BD206800F0DDFA0AE0206800F08C
:1014600001FB06E0206800F029FB02E0206800F0A4
:1014700051FB84F83D50002084F83C0070BD70475B
:1014800010B5040003D094F83D0010B107E001202E
:1014900010BD002084F83C00204600F00CF802202B
:1014A00084F83D00211D206800F082FA012084F8B4
:1014B0003D00002010BD704770B5044690F83C0018
:1014C0000D4601280DD0012684F83C60022084F8E6
:1014D0003D0042B1042A18D0082A2AD00C2A4DD146
:1014E00039E0022070BD206800F094FA206881691C
:1014F00041F0080181612068816921F00401816166
:10150000206881692A69114311E0206800F0AAFA75
:101510002068816941F4006181612068816921F45A
:1015200080618161206881692A6941EA02218161C3
:1015300024E0206800F0C2FA2068C16941F0080187
:10154000C1612068C16921F00401C1612068C169DD
:101550002A69114311E0206800F0DCFA2068C169B3
:1015600041F40061C1612068C16921F48061C161F9
:101570002068C1692A6941EA0221C16184F83D609D
:10158000002084F83C0070BD10B5040003D094F82E
:101590003D0010B107E0012010BD002084F83C00A0
:1015A000204600F00DF8022084F83D00211D20683F
:1015B00000F0FEF9012084F83D00002010BD00007D
:1015C00008B500680649884208D10648016841F01C
:1015D00008010160006800F00800009008BD0000EC
:1015E000000C00404038024070470000006803498A
:1015F000884201D1FFF782BA704700000000014025
:10160000704770B5040004D094F83900002510B17B
:1016100006E0012070BD84F83850204600F022F822
:10162000242084F839002068C16821F40051C16089
:10163000204600F091FA2068016921F4904101618F
:101640002068416921F02A0141612068C16841F4A4
:101650000051C160E563202084F8390084F83A0025
:10166000002070BDF0B587B0044614216846FEF72F
:1016700071FE1D4F22681D49022301240325072600
:101680001B48BA4213D1194A1432176847F01007A1
:101690001760126802F0100205920A6842F0010217
:1016A0000A60096801F001010591690215E0114F16
:1016B000BA4217D10D4A1032176847F40037176045
:1016C000126802F4003205920A6842F001020A60D0
:1016D000096801F0010105910C218DE87A00694645
:1016E000FFF72CF807B0F0BD001001403038024081
:1016F0000000024000440040FEE700007FB50024E7
:1017000011480094019402940E49039401604FF42F
:101710008031C0E901140461047680F820400B494F
:10172000C0E90A140125C561C46080F830404561F4
:10173000FEF788FFCDE90045694603480294FEF7AD
:10174000DBFE7FBD00200140780000200100000F7B
:10175000F0B587B014216846FEF7FCFD214800244F
:10176000016841F004010160016801F00401059184
:10177000016841F001010160016801F0010105917A
:10178000016841F0020101600068174E00F002009C
:10179000059000220F213046FFF78DF8134F0022ED
:1017A00020213846FFF787F80F2000900125CDE96A
:1017B0000154694630460394FEF7C0FF2020CDE96E
:1017C000000569463846CDE90245FEF7B7FF4FF4FC
:1017D0007070CDE90004694630460294FEF7AEFF12
:1017E00007B0F0BD3038024000080240000002405F
:1017F00010B58AB0002407941C2168460894FEF7AF
:10180000A9FD1B48194901605F21C0E901144FF48B
:10181000FA71C0E903148461FFF7B6FE1448FFF7BC
:101820002FFE079407A912480894FFF7BDFC60201B
:10183000CDE900040294002269460D480494FFF7A4
:101840003BFE042269460A48FFF736FE0822694635
:1018500007480094FFF7E8FD0C2269460448FFF7AB
:10186000E3FD0348FFF7A2FD0AB010BD000C0040E5
:1018700068010020FEE77047054C20212046FFF755
:1018800013F804A000F0C0FAC82000F06BFBF4E7E6
:101890000000024048656C6C6F20576F726C6421C9
:1018A0000D0A000010B5502080F31188BFF34F8F50
:1018B000BFF36F8F00F0D8FF18B104494FF080508C
:1018C0000860002080F3118810BD000004ED00E0E6
:1018D00030B593B034216846FEF73CFD14210DA8C5
:1018E000FEF738FD18480025016841F0805101607D
:1018F000006800F0805012901448016841F44041A3
:1019000001600068022400F440401290012003901E
:101910001020009406940490CDE90750C020CDE932
:1019200009040420CDE90B046846FFF7A9FA0DA9C4
:101930000F2081E83100E002CDE9100503210DA858
:10194000FFF794F913B030BD4038024000700040FA
:101950001048016841F4700101600F48016841F0CE
:10196000010101600C4A00210832116002680B4B32
:101970001A400260031D0A4A1A60026822F480229B
:10198000026005480C300160024958068039086041
:101990007047000088ED00E000380240FFFFF6FECF
:1019A000103000240148FFF74EBC00007C040020EA
:1019B00030B50268134B144C984201D0A04203D1B9
:1019C00022F070054A682A43984207D0A04205D009
:1019D0000E4CA04202D00E4CA04203D122F440741F
:1019E000CA6822434C6922F08002224302608A685E
:1019F000C2620A688262984201D1096901630121C9
:101A0000416130BD00000140000C00400040014039
:101A10000048014030B5026A22F001020262026A07
:101A20004368846924F073050C682C4322F0020596
:101A30008A682A430A4DA8420BD122F00805CA68D9
:101A400023F440732A434D6922F004021D438B693D
:101A50002B434360846149684163026230BD0000EA
:101A60000000014030B5026A22F010020262026AF0
:101A7000436884690D6824F4E64444EA05248D68CB
:101A800022F0200242EA05120B4DA8420ED1CD6889
:101A900022F0800242EA05124D6923F4406343EAD2
:101AA00085038D6922F0400243EA85034360846127
:101AB00049688163026230BD0000014030B5026AAE
:101AC00022F480720262036A4268C46923F40073DC
:101AD00024F073050C682C438D6843EA05230C4DF4
:101AE000A8420ED1CD6823F4006343EA05234D6973
:101AF00022F4405242EA05128D6923F4806342EADF
:101B000005124260C4614968C163036230BD0000D0
:101B10000000014030B5026A22F480520262046A79
:101B20004268C3690D6823F4E64343EA05238D68E0
:101B300024F4005444EA0534064DA84204D14D690A
:101B400022F4804242EA85124260C361496801641E
:101B5000046230BD000001402DE9F04104460068F8
:101B60000169E26821F44051114301612169A068D3
:101B7000E26908436169114322680843D16849F268
:101B80000C6399430143D16020684169A26921F443
:101B9000407111434161E2696425B2F5004F9748F5
:101BA000974922684FF032083FD08A4201D08242E2
:101BB0007CD1FFF723F900EBC00101EB0010616855
:101BC0008900B0FBF1F6FFF719F900EBC00101EB5A
:101BD000001061688900B0FBF1F0B0FBF5F06FF028
:101BE0001801484306EB800108EB0110B0FBF5F04B
:101BF00000F0F006FFF702F900EBC00101EB001066
:101C000061688900B0FBF1F0B0FBF5F006EB00165F
:101C1000FFF7F4F800EBC00101EB001061688900E8
:101C2000B0FBF1F7FFF7EAF8D2E08A4201D0824236
:101C30003DD1FFF7E3F800EBC00101EB0010616854
:101C40004900B0FBF1F0B0FBF5F00601FFF7D6F864
:101C500000EBC00101EB001061684900B0FBF1F737
:101C6000FFF7CCF800EBC00101EB00106168490000
:101C7000B0FBF1F0B0FBF5F06FF01801484307EB53
:101C8000800108EBC100B0FBF5F000F0F80006EBB6
:101C90004006FFF7B3F800EBC00101EB00106168EC
:101CA0004900B0FBF1F7FFF7A9F83CE055E0FFF77A
:101CB00095F800EBC00101EB001061684900B0FB32
:101CC000F1F0B0FBF5F00601FFF788F800EBC0017A
:101CD00001EB001061684900B0FBF1F7FFF77EF8F7
:101CE00000EBC00101EB001061684900B0FBF1F0AE
:101CF000B0FBF5F06FF01801484307EB800108EBEB
:101D0000C100B0FBF5F000F0F80006EB4006FFF76D
:101D100065F800EBC00101EB001061684900B0FB01
:101D2000F1F7FFF75BF800EBC00101EB0010616811
:101D30004900B0FBF1F0B0FBF5F06FF0180148433B
:101D400007EB800108EBC100B0FBF5F000F00700E5
:101D5000216830448860BDE8F081FFF73FF800EB70
:101D6000C00101EB001061688900B0FBF1F6FFF7DC
:101D700035F800EBC00101EB001061688900B0FB91
:101D8000F1F0B0FBF5F06FF01801484306EB80016D
:101D900008EB0110B0FBF5F000F0F006FFF71EF8BD
:101DA00000EBC00101EB001061688900B0FBF1F0AD
:101DB000B0FBF5F006EB0016FFF710F800EBC001E2
:101DC00001EB001061688900B0FBF1F7FFF706F83E
:101DD00000EBC00101EB001061688900B0FBF1F07D
:101DE000B0FBF5F06FF01801484307EB800108EBFA
:101DF0000110B0FBF5F000F00F00A9E7001401405E
:101E000000100140FEE70000014A024900F023B83B
:101E1000791E0000740000200907090E002804DB69
:101E200000F1E02080F80014704700F00F0000F18E
:101E3000E02080F8141D704702E008C8121F08C196
:101E4000002AFAD170477047002001E001C1121F3B
:101E5000002AFBD170472DE9F04116460F46044693
:101E6000002503E03946B047641C6D1C207800282B
:101E7000F8D12846BDE8F08138B504468DF8000059
:101E800069460320ABBE204638BD000088B0FEF78F
:101E90003DFEFFF71DFDFFF75BFCFFF72FFC26481B
:101EA0002449264D00240160C0E901540E14C0E904
:101EB000034644618461C4610462FEF707FD1E4865
:101EC0001F4954300160C0E90154C0E90346446130
:101ED0008461C4610462FEF7F9FC17481949E830CF
:101EE0004FF4E1350160C0E901540C26C460C0E93B
:101EF00004468461C461FFF784FB14481249016001
:101F0000C0E90154C460C0E904468461C461FFF7BC
:101F100078FBFFF76DFC1C220D496846FEF701FABD
:101F20000021684600F02AF80A49086000F021F80C
:101F3000FEE7000000540040C0000020A086010021
:101F4000005800400010014000440040E80100201B
:101F5000F42900000000002001460020842900D060
:101F6000C81C704710B500B9012000F019FB002013
:101F700010BD10B500F03AFB002010BD7FB50D4636
:101F800004464169B0F9080081B1A16971B1FFF758
:101F9000E3FFD4E905128DE80700D4E900102B46D1
:101FA000226900F036FC039004B070BDFFF7D4FF47
:101FB00003A9CDE90001208A2B4682B2D4E90010A2
:101FC00000F0FAFB012801D00020EDE70398EBE7D1
:101FD0002DE9F041184C0F46054666692068001D42
:101FE00000F01AFA38B9206890F82C1001208840C7
:101FF000A1698143A161681C07D137B12168BDE89F
:10200000F0410E48091D00F04BBA20683544B54236
:102010004560216805D2A068BDE8F041091D00F0C7
:1020200027BA6068091D00F023FA206B854200D2B0
:102030002563BDE8F0810000140000209805002011
:102040002DE9F041054600F037FA2E4C2069401C7E
:10205000206120682C4F10B1E06940B32DE025606D
:102060002069012829D1002606EB860007EB8000B5
:1020700000F0F0F9761C072EF6D323488C3000F0E0
:10208000E9F92148A03000F0E5F91F48B43000F02C
:10209000E1F91D48C83000F0DDF91B48DC3000F0E4
:1020A000D9F919488C3060601430A06005E02068D0
:1020B000E96AC06A884200D82560E06A401CE06294
:1020C000E96A0120A26988401043A06101EB810008
:1020D00007EB8000291D00F0E3F900F00DFAE0693C
:1020E00000280CD02068E96AC06A884207D20749F4
:1020F0004FF080500860BFF34F8FBFF36F8FBDE884
:10210000F081000014000020BC04002004ED00E079
:1021100010B5044690F8510058B101280CD002289F
:102120000FD0502080F31188BFF34F8FBFF36F8F14
:10213000FEE7206B00F0F4F92046BDE8104000F007
:10214000EFB910BD10484FF47051420706D0C01DC2
:102150000D4920F00700411AC1F570510B4A0023C8
:102160000144C2E900030839103A21F00701116067
:102170004B600B600B1AC0E9001393604FF00040F6
:102180005360D06070470000AC0500206000002064
:10219000144E154CA6F1C8074FF08058DFF84C904C
:1021A00012E000BF00F088F9F068C568281D00F053
:1021B00033F92069401E2061E068401EE06000F0B5
:1021C0009BF92846FFF7A4FFE0680028EAD13868A9
:1021D0000128F9D9C9F80080BFF34F8FBFF36F8F83
:1021E000F2E70000840500201400002004ED00E068
:1021F0002DE9F0479A46DDE9098481466FF0030333
:10220000206B03EB82021044089D20F00706700744
:1022100007D0502080F31188BFF34F8FBFF36F8F2B
:10222000FEE723180A5C83F834200A5C12B1401CD4
:102230001028F6D3002784F84370072D00D3062515
:10224000E562C4E91157201D00F00FF904F11800F0
:1022500000F00BF92461C5F107006462A061E76436
:1022600084F8507052464946304600F0BFF820606E
:10227000B8F1000F01D0C8F80040BDE8F0870000B9
:1022800030B5114900E011460A688242FBD34B6821
:102290005C18844203D1406818444860084643688B
:1022A0001C18944209D1084C103C2468A24209D061
:1022B00052681A4442600A6812680260814200D083
:1022C000086030BD0460F9E76000002006484168FE
:1022D000096829B14168C968C968496801637047DC
:1022E0004FF0FF31FAE70000140000200848406872
:1022F000401C4FF0500080F3118804D0BFF34F8F83
:10230000BFF36F8FFEE7BFF34F8FBFF36F8FFEE713
:10231000680000202DE9F0410546002700F09CF9F7
:10232000314E306808B9FFF70DFFF06805424BD118
:10233000C5B3083568070ED005F00700C0F10800E6
:102340000544680707D0502080F31188BFF34F8FF2
:10235000BFF36F8FFEE72DB37068854234D82248F3
:10236000103001460C6801E020460C466168A94225
:1023700002D221680029F7D131688C4224D0076845
:102380002168016060680837411B10290FD9601966
:10239000420708D0502080F31188BFF34F8FBFF35E
:1023A0006F8FFEE710E041606560FFF769FF6168CD
:1023B0007068401A7060B268904200D2B060F068F5
:1023C00001430020C4E9000100F0B2FA780707D009
:1023D000502080F31188BFF34F8FBFF36F8FFEE75C
:1023E0003846BDE8F08100005000002010B5031F02
:1023F0004FF080741C601B1F21F001011960191F30
:10240000044B0B6014390A60091F6FF00202443854
:102410000A6010BDED220000D0E9013201699A6026
:10242000D0E901235A604A68824201D182684A6039
:10243000002202610868401E0860086870470000BA
:10244000034B036003F15400086080201060704764
:102450002802002000F108014FF0FF32C0E901120C
:10246000C160016100210160704700210161704776
:1024700030B50B685A1C02D000F1080202E0026974
:1024800004E02246546825689D42FAD953684B609F
:1024900099608A60516008610168491C016030BD23
:1024A00042684A6093688B609368596091600861E4
:1024B0000168491C01607047502080F31188BFF308
:1024C0004F8FBFF36F8F0A494868401C486001284E
:1024D0000CD10848006810F0FF0F07D0502080F39F
:1024E0001188BFF34F8FBFF36F8FFEE77047000077
:1024F0006800002004ED00E00849486828B1401E4B
:10250000486001D180F311887047502080F3118812
:10251000BFF34F8FBFF36F8FFEE70000680000200E
:1025200070B5002827D0144DA0F108046168E86850
:10253000014207D1502080F31188BFF34F8FBFF3C2
:102540006F8FFEE722683AB1502080F31188BFF305
:102550004F8FBFF36F8FFEE78143616000F07CF81F
:1025600060686968084468602046FFF789FEBDE836
:10257000704000F0DDB970BD500000204FF0E02049
:1025800000210161816105494FF47A720968B1FB4C
:10259000F2F1491E416107210161704710000020DE
:1025A00010B5020014D00F48806B38B1502080F372
:1025B0001188BFF34F8FBFF36F8FFEE700F04CF829
:1025C00000211046FFF704FD00F0B2F9002807D102
:1025D00005494FF080500860BFF34F8FBFF36F8FF6
:1025E00010BD00001400002004ED00E010B586B01E
:1025F0000024039405AA04A903A80494FFF720FF6C
:10260000DDE903010094CDE9011000230EA110487B
:10261000059A00F0FEF80F490028486311D05020B9
:1026200080F31188BFF34F8FBFF36F8F4FF0FF30F0
:1026300008630120C8614C6106B0BDE8104000F09D
:1026400041B806B010BD000049444C4500000000F0
:1026500091210000140000200248816B491C816315
:1026600070470000140000201448816B11B1012153
:1026700041627047002141628169B1FA81F1C1F183
:102680001F0101EB81020E4951F822306BB101EBC1
:10269000820101F108034A6852684A609A4201D1F6
:1026A00052684A60D16801607047502080F31188F9
:1026B000BFF34F8FBFF36F8FFEE7000014000020C1
:1026C000BC0400201CB537480168374A914207D145
:1026D000502080F31188BFF34F8FBFF36F8FFEE759
:1026E00000683149491E884207D1502080F3118883
:1026F000BFF34F8FBFF36F8FFEE72C49087801902F
:10270000FF20087008788DF800009DF800009DF803
:10271000002000F0F000904207D0502080F3118894
:10272000BFF34F8FBFF36F8FFEE79DF80000204B84
:1027300000F0500018700720986005E09DF8002018
:1027400052008DF80020401E9DF800201206F5D49E
:102750009860032807D0502080F31188BFF34F8F73
:10276000BFF36F8FFEE74FF44070986001980870D8
:102770000C482030016841F470010160016841F0AB
:1027800070410160FFF7FAFE00205860FDF74AFD36
:102790000848016841F040410160FDF72FFD00202D
:1027A0001CBD000000ED00E071C20F4100E400E03C
:1027B0006800002034EF00E02DE9FF5F8346DDE98B
:1027C0000E87994616468A469000FFF7A3FD05003E
:1027D0001CD05420FFF79EFD040014D00020256378
:1027E00084F85100CDE90240CDE900874B463246DE
:1027F00051465846FFF7FCFC2046FFF721FC01201C
:1028000004B0BDE8F09F2846FFF78AFE4FF0FF3086
:10281000F6E7F0B585B0DDE90B640A9DA6B1DCB141
:10282000542700972663022684F85160002604AFDF
:10283000CDE90246CDE90057FFF7DAFC2046FFF765
:10284000FFFB049805B0F0BD502080F31188BFF362
:102850004F8FBFF36F8FFEE7502080F31188BFF3D7
:102860004F8FBFF36F8FFEE72DE9F0412E4C00270D
:10287000A06B40B1206A401C2062606A00B1012751
:102880003846BDE8F0816669761C666113D16068E0
:10289000006838B1502080F31188BFF34F8FBFF329
:1028A0006F8FFEE76068A1686160A060A06A401C4D
:1028B000A062FFF70BFD206BDFF87080864209D322
:1028C0006068006880B16068C068C56868688642F2
:1028D0000DD220632068C06A00EB800158F8210007
:1028E0000128CAD90127C8E74FF0FF30F1E7281DBA
:1028F000FFF792FDA86A18B105F11800FFF78CFDEB
:10290000E86A0121A26981401143A16100EB8001C5
:1029100008EB8100291DFFF7C3FDE86A2168C96A39
:102920008842CDD30127CBE714000020BC0400204F
:102930002DE9F0472C4D00242746A86B38B1FFF74E
:10294000BBFDA86B401EA863A86B40B146E05020B9
:1029500080F31188BFF34F8FBFF36F8FFEE72969B4
:10296000224E0120D1B3A6F1B40980463068E8B107
:10297000F068C46804F11800FFF74EFD201DFFF752
:102980004BFDE06AAA6908FA00F11143A96100EB66
:10299000800109EB8100211DFFF782FDE06A2968B3
:1029A000C96A8842E2D3C5F82480DFE70CB1FFF79B
:1029B0008DFC2C6A44B14646FFF756FF00B16E62AB
:1029C000641EF9D100202862686A38B108490127DD
:1029D00038070860BFF34F8FBFF36F8FFFF78CFD91
:1029E0003846BDE8F0870000140000207005002084
:1029F00004ED00E0282A0000791800000000000023
:102A00000000000080000000000000000000000046
:102A1000000000000000000001020304060708098E
:102A2000000000000102030464656661756C745463
:102A300061736B00542A0000000000207800000041
:102A4000381E0000CC2A0000780000203845000025
:102A5000481E0000000000000100000010000000FF
:102A6000000000000024F40000000000000000004E
:102A70000000000000000000000000000000000056
:102A80000000000000000000000000000000000046
:102A90000000000000000000000000000000000036
:102AA0000000000000000000000000000000000026
:102AB0000000000000000000000000000000000016
:0C2AC000AAAAAAAA000000000000000062
:04000005000001C92D
:00000001FF
